:100000000C942A000C9434000C9434000C943400AA
:100010000C9434000C9434000C9434000C94340090
:100020000C9434000C9434000C9434000C94340080
:100030000C9434000C9434000C9434000C94340070
:100040000C9434000C9434000C9434000C94340060
:100050000C94340011241FBECFE5D8E0DEBFCDBF25
:100060000E9478000C948F000C94000010BC83E375
:1000700089B988E18AB986E880BD08955D9BFECF85
:100080008CB90895CF93DF93EC018991882319F0FF
:100090000E943E00FACFDF91CF9108955F9BFECF83
:1000A0008CB10895CF92DF92FF920F931F93CF935D
:1000B000DF936C01F12C062F10E001501109CF2DB8
:1000C000D0E0C017D10724F40E944E00803259F4CA
:1000D000CC0DDD1D1882DF91CF911F910F91FF9004
:1000E000DF90CF900895CC0DDD1D8883F394E7CF8A
:1000F000CF93DF93CDB7DEB76E970FB6F894DEBF20
:100100000FBECDBF82E60E943E006EE1CE01019699
:100110000E945200CE0101960E944200F3CFF89453
:02012000FFCF0F
:00000001FF
